S01400005061636B6D616E46696E616C2E737265636B
S11300000C94B6000C94C0000C94C0000C94C00076
S11300100C94C0000C94C0000C94C0000C94C0005C
S11300200C94C0000C94C0000C94C0000C94C0004C
S11300300C94C0000C94C0000C94C0000C94C0003C
S11300400C94C0000C94C0000C94C0000C94C0002C
S11300500C94C0000C94C0000C94C0000C94C0001C
S11300600C94C0000C94C0000C94C0000C94C0000C
S11300700C94C0000C94C0000C94C0000C94C000FC
S11300800C94C0000C94C0000C94C0000C94C000EC
S11300900C94C0000C94C0000C94C0000C94C000DC
S11300A00C94C0000C94C0000C94C0000C94C000CC
S11300B00C94C0000C94C0000C94C0000C94C000BC
S11300C00C94C0000C94C0000C94C0000C94C000AC
S11300D00C94C0000C94C0000C94C0000C94C0009C
S11300E00C94C0000C94C0000C94C0000C94C0008C
S11300F00C94C0000C94C0000C94C0000C94C0007C
S11301000C94C0000C94C0000C94C0000C94C0006B
S11301100C94C0000C94C0000C94C0000C94C0005B
S11301200C94C0000C94C0000C94C0000C94C0004B
S11301300C94C0000C94C0000C94C0000C94C0003B
S11301400C94C0000C94C0000C94C0000C94C0002B
S11301500C94C0000C94C0000C94C0000C94C0001B
S11301600C94C0000C94C0000C94C00011241FBE59
S1130170CFEFCDBFDFE2DEBF0E94DF010C94B102FE
S11301800C94000088ED84BF82E080935000E0E589
S1130190F0E0818181FFFDCF88ED84BF81E0809311
S11301A040000895892B09F423C0000000000000DA
S11301B0000000000000000000000000000000003B
S11301C0000000000000000000000000000000002B
S11301D0000000000000000000000000000000001B
S11301E0000000000000000000000000000008956E
S11301F0000000000895AF92BF92CF92DF92FF9269
S11302000F931F93CF93DF93F82E6B01A12CB12C86
S1130210C0E0D6E0FC828601F601808190E00E9475
S1130220D2001C8281E090E0F6012081222311F0AB
S113023080E090E00E94D200FC82F801808190E08E
S11302400E94D2001C8281E090E0F80120812223E8
S113025011F080E090E00E94D200FC82F8018081DD
S113026090E00E94D2001C8281E090E0F80120819D
S1130270222311F080E090E00E94D200FC82F80179
S1130280808190E00E94D2001C8281E090E0F8011D
S11302902081222311F080E090E00E94D200FC82B1
S11302A0F801808190E00E94D2001C8281E090E0FD
S11302B0F8012081222311F080E090E00E94D20016
S11302C0FC82F801808190E00E94D2001C8281E0CF
S11302D090E0F8012081222311F080E090E00E9458
S11302E0D200FC82F801808190E00E94D2001C823E
S11302F081E090E0F8012081222311F080E090E079
S11303000E94D200FC82F801808190E00E94D20019
S11303101C8281E090E0F8012081222311F080E02A
S113032090E00E94D200FFEFAF1ABF0A8FEFC81A05
S1130330D80AE3E0AE16B10409F06CCFDF91CF9197
S11303401F910F91FF90DF90CF90BF90AF900895D1
S1130350AF92BF92CF92DF92EF92FF920F931F93CF
S1130360CF93DF93EC01C12CD12CAA24A394B12CFC
S113037010C0BE01C7010E94FB0021960C171D0787
S1130380C1F78FEFC81AD80AE80183E0C816D10470
S113039059F075010C2C02C0EE0CFF1C0A94E2F714
S11303A08E010C5F1F4FE5CFDF91CF911F910F910D
S11303B0FF90EF90DF90CF90BF90AF900895CF93D0
S11303C0DF93CDB7DEB76C97CDBFDEBF0E94C2000E
S11303D08FEF809300061092200610924006109230
S11303E0600610928006FE01319686E0DF011D92C0
S11303F08A95E9F736968CE0DF011D928A95E9F734
S1130400E12CF12C1A8E1C8E1B8E512C0F2EF0E435
S1130410CF2EF6E0DF2EF02D0F2EF0E6AF2EF6E015
S1130420BF2EF02D0F2EF0E28F2EF6E09F2EF02D32
S113043036973F018E01075E1F4F3E2E472C262C18
S1130440798E03C0FC8DFA8F8B8F80918806813062
S113045011F5D60118968C918F71BB8D8B1307C043
S1130460F50190859F719A8FFC8D9F1759F3D401E4
S113047018969C91E82FF0E03197EE0FFF1FEE0FD6
S1130480FF1FE60DF71DBA8DEB0FF11D97709583D5
S1130490BC8F8B8FDACF823009F05BC0E2E0EE16BE
S11304A0F10498F6D60118968C918170851102C0DA
S11304B0582E49C05094F601808587708B8B8085B7
S11304C087708C8BD50118968C91189787708D8BBB
S11304D018968C91189787708E8B18968C91F401CE
S11304E0908591708670892B8F8B80858770888F1B
S11304F0FE017396432D542D822D998D2191DC019B
S11305002D93CD01E017F107C9F7C701880F991F93
S11305108E0D9F1D880F991FE7E0F0E0EC0FFD1F83
S1130520E80FF91F069627E030E02C0F3D1F820FDD
S1130530931FDA012D91AD012193E817F907C9F74B
S1130540BFEFEB1AFB0AE2E0EE16F10408F4AACFBF
S11305507CCF833009F079CFCE0107960E94A801A1
S109056074CFF894FFCFF4
S9030000FC
