S01400005061636B6D616E46696E616C2E737265636B
S11300000C94B6000C94C0000C94C0000C94C00076
S11300100C94C0000C94C0000C94C0000C94C0005C
S11300200C94C0000C94C0000C94C0000C94C0004C
S11300300C94C0000C94C0000C94C0000C94C0003C
S11300400C94C0000C94C0000C94C0000C94C0002C
S11300500C94C0000C94C0000C94C0000C94C0001C
S11300600C94C0000C94C0000C94C0000C94C0000C
S11300700C94C0000C94C0000C94C0000C94C000FC
S11300800C94C0000C94C0000C94C0000C94C000EC
S11300900C94C0000C94C0000C94C0000C94C000DC
S11300A00C94C0000C94C0000C94C0000C94C000CC
S11300B00C94C0000C94C0000C94C0000C94C000BC
S11300C00C94C0000C94C0000C94C0000C94C000AC
S11300D00C94C0000C94C0000C94C0000C94C0009C
S11300E00C94C0000C94C0000C94C0000C94C0008C
S11300F00C94C0000C94C0000C94C0000C94C0007C
S11301000C94C0000C94C0000C94C0000C94C0006B
S11301100C94C0000C94C0000C94C0000C94C0005B
S11301200C94C0000C94C0000C94C0000C94C0004B
S11301300C94C0000C94C0000C94C0000C94C0003B
S11301400C94C0000C94C0000C94C0000C94C0002B
S11301500C94C0000C94C0000C94C0000C94C0001B
S11301600C94C0000C94C0000C94C00011241FBE59
S1130170CFEFCDBFDFE2DEBF0E94BD010C94780259
S11301800C94000088ED84BF82E080935000E0E589
S1130190F0E0818181FFFDCF88ED84BF81E0809311
S11301A040000895892B09F423C0000000000000DA
S11301B0000000000000000000000000000000003B
S11301C0000000000000000000000000000000002B
S11301D0000000000000000000000000000000001B
S11301E0000000000000000000000000000008956E
S11301F0000000000895CF92DF92EF92FF920F93D8
S11302001F93CF93DF93F82E6B01E12CC0E0D6E06F
S1130210FC828601F601808190E00E94D2001C825B
S113022081E090E0F6012081222311F080E090E04B
S11302300E94D200FC82F801808190E00E94D200EA
S11302401C8281E090E0F8012081222311F080E0FB
S113025090E00E94D200FC82F801808190E00E942C
S1130260D2001C8281E090E0F8012081222311F069
S113027080E090E00E94D200FC82F801808190E04E
S11302800E94D2001C8281E090E0F80120812223A8
S113029011F080E090E00E94D200FC82F80180819D
S11302A090E00E94D2001C8281E090E0F80120815D
S11302B0222311F080E090E00E94D200FC82F80139
S11302C0808190E00E94D2001C8281E090E0F801DD
S11302D02081222311F080E090E00E94D200FC8271
S11302E0F801808190E00E94D2001C8281E090E0BD
S11302F0F8012081222311F080E090E00E94D200D6
S1130300FC82F801808190E00E94D2001C8281E08E
S113031090E0F8012081222311F080E090E00E9417
S1130320D200E394FFEFCF1ADF0A83E0E81270CF24
S1130330DF91CF911F910F91FF90EF90DF90CF90BD
S113034008950F931F93CF93DF93EC018C01065F05
S11303501F4FBE0181E090E00E94FB008FE891E016
S11303600197F1F700C000002196C017D10789F763
S1130370DF91CF911F910F910895CF93DF93CDB764
S1130380DEB76A97CDBFDEBF0E94C200FE01319680
S113039086E0DF011D928A95E9F736968AE0DF014F
S11303A01D928A95E9F78FEF80930006109220063C
S11303B0109240061092600610928006612C712CF7
S11303C0188E1A8E198E312C0F2EF0E4CF2EF6E0F3
S11303D0DF2EF02D0F2EF0E6AF2EF6E0BF2EF02D1F
S11303E00F2EF0E28F2EF6E09F2EF02D36972F0180
S11303F07E01F7E1EF0EF11C242C5F8A8E01035F6E
S11304001F4F03C08A8D888F298F80918806813081
S113041049F5D60118962C912F71B98D2B1307C06D
S1130420F50180858F71888FFA8D8F1759F3D40168
S113043018963C91822F90E00197FC01EE0FFF1F6C
S1130440880F991F880F991F880F991FE80FF91FAC
S1130450E40DF51DB88DEB0FF11D37703583BA8FA0
S1130460298FD3CF8230E1F56114710471F6F6015E
S113047080858170831102C0382EF9CF3094808535
S11304808770898B808587708A8BF501808587705A
S11304908B8B808587708C8B8085D40118969C917A
S11304A0189791708670892B8D8B18968C91877014
S11304B08E8BFE017196C201A22DBF8921912D93CD
S11304C0EE15FF05D9F7FE013796DC012D91CD011C
S11304D02193E017F107C9F766246394712C95CF33
S11304E0833009F092CFCE0107960E94A1018DCFEF
S10704F0F894FFCFAA
S9030000FC
