S01000005061636B6D616E322E7372656327
S11300000C94B6000C94CB000C94CB000C94CB0055
S11300100C94CB000C94CB000C94CB000C94CB0030
S11300200C94CB000C94CB000C94CB000C94CB0020
S11300300C94CB000C94CB000C94CB000C94CB0010
S11300400C94CB000C94CB000C94CB000C94CB0000
S11300500C94CB000C94CB000C94CB000C94CB00F0
S11300600C94CB000C94CB000C94CB000C94CB00E0
S11300700C94CB000C94CB000C94CB000C94CB00D0
S11300800C94CB000C94CB000C94CB000C94CB00C0
S11300900C94CB000C94CB000C94CB000C94CB00B0
S11300A00C94CB000C94CB000C94CB000C94CB00A0
S11300B00C94CB000C94CB000C94CB000C94CB0090
S11300C00C94CB000C94CB000C94CB000C94CB0080
S11300D00C94CB000C94CB000C94CB000C94CB0070
S11300E00C94CB000C94CB000C94CB000C94CB0060
S11300F00C94CB000C94CB000C94CB000C94CB0050
S11301000C94CB000C94CB000C94CB000C94CB003F
S11301100C94CB000C94CB000C94CB000C94CB002F
S11301200C94CB000C94CB000C94CB000C94CB001F
S11301300C94CB000C94CB000C94CB000C94CB000F
S11301400C94CB000C94CB000C94CB000C94CB00FF
S11301500C94CB000C94CB000C94CB000C94CB00EF
S11301600C94CB000C94CB000C94CB0011241FBE38
S1130170CFEFCDBFDFE2DEBF10E2A0E0B0E2E4E308
S1130180F5E002C005900D92A039B107D9F70E949D
S113019027010C9498020C94000088ED84BF82E03F
S11301A080935000E0E5F0E0818181FFFDCF88ED90
S11301B084BF81E0809340000895892B09F423C013
S11301C0000000000000000000000000000000002B
S11301D0000000000000000000000000000000001B
S11301E0000000000000000000000000000000000B
S11301F000000000000000000000000000000000FB
S1130200000000000895000000000895FF920F937D
S11302101F93CF93DF93F82EC7E1D0E000E016E000
S1130220F801F482CE010E94DD00F801148281E01D
S113023090E0209711F080E090E00E94DD0021978B
S113024078F7DF91CF911F910F91FF900895CF938D
S1130250DF93CDB7DEB7C059D109CDBFDEBF0E9451
S1130260CD008FEF8093400680E3E0E0F0E2DE0112
S1130270119601900D928A95E1F780E3E0E3F0E2B4
S1130280DE01D19601900D928A95E1F780E3E0E6D4
S1130290F0E2DE01AF59BF4F01900D928A95E1F76C
S11302A008EE13E0BE016F5F7F4F87E090E00E948D
S11302B00601BE016F5F7F4F87E090E00E94060158
S11302C0BE016F5F7F4F87E090E00E940601BE0190
S11302D06F5F7F4F87E090E00E940601BE016F5F71
S11302E07F4F87E090E00E940601BE016F5F7F4F61
S11302F087E090E00E940601BE016F5F7F4F87E0B8
S113030090E00E940601BE016F5F7F4F87E090E09E
S11303100E940601BE016F5F7F4F87E090E00E945C
S11303200601BE016F5F7F4F87E090E00E940601E7
S1130330BE016F5F7F4F87E090E00E940601BE011F
S11303406F5F7F4F87E090E00E940601BE016F5F00
S11303507F4F87E090E00E940601BE016F5F7F4FF0
S113036087E090E00E9406012FEF87EA91E6215092
S113037080409040E1F700C00000BE016F5C7F4FF9
S113038087E090E00E940601BE016F5C7F4F87E02A
S113039090E00E940601BE016F5C7F4F87E090E011
S11303A00E940601BE016F5C7F4F87E090E00E94CF
S11303B00601BE016F5C7F4F87E090E00E9406015A
S11303C0BE016F5C7F4F87E090E00E940601BE0192
S11303D06F5C7F4F87E090E00E940601BE016F5C76
S11303E07F4F87E090E00E940601BE016F5C7F4F63
S11303F087E090E00E940601BE016F5C7F4F87E0BA
S113040090E00E940601BE016F5C7F4F87E090E0A0
S11304100E940601BE016F5C7F4F87E090E00E945E
S11304200601BE016F5C7F4F87E090E00E940601E9
S1130430BE016F5C7F4F87E090E00E9406012FEFC2
S113044087EA91E6215080409040E1F700C0000027
S1130450BE016F597F4F87E090E00E940601BE0104
S11304606F597F4F87E090E00E940601BE016F59EB
S11304707F4F87E090E00E940601BE016F597F4FD5
S113048087E090E00E940601BE016F597F4F87E02C
S113049090E00E940601BE016F597F4F87E090E013
S11304A00E940601BE016F597F4F87E090E00E94D1
S11304B00601BE016F597F4F87E090E00E9406015C
S11304C0BE016F597F4F87E090E00E940601BE0194
S11304D06F597F4F87E090E00E940601BE016F597B
S11304E07F4F87E090E00E940601BE016F597F4F65
S11304F087E090E00E940601BE016F597F4F87E0BC
S113050090E00E940601BE016F597F4F87E090E0A2
S11305100E9406012FEF87EA91E621508040904027
S1130520E1F700C000000150110909F0BBCEFFCF74
S1070530F894FFCF69
S113053401000100010001000100010001000100AB
S113054400000000000000000000000000000000A3
S11305540000000000000000000000000000000093
S11305640000000000000000000000000000000083
S1130574010001000100010001000100010001006B
S11305840000000000000000000000000000000063
S11305940000000000000000000000000000000053
S11305A40000000000000000000000000000000043
S11305B4010001000100010001000100010001002B
S9030000FC
